{"contracts/RandomNumRange.sol":{"RandomNumRange":{"abi":[{"inputs":[{"internalType":"uint64","name":"subscriptionId","type":"uint64"}],"stateMutability":"nonpayable","type":"constructor"},{"inputs":[{"internalType":"address","name":"have","type":"address"},{"internalType":"address","name":"want","type":"address"}],"name":"OnlyCoordinatorCanFulfill","type":"error"},{"inputs":[{"internalType":"uint256","name":"requestId","type":"uint256"},{"internalType":"uint256[]","name":"randomWords","type":"uint256[]"}],"name":"rawFulfillRandomWords","outputs":[],"stateMutability":"nonpayable","type":"function"},{"inputs":[],"name":"requestRandomWords","outputs":[],"stateMutability":"nonpayable","type":"function"},{"inputs":[{"internalType":"uint256","name":"","type":"uint256"}],"name":"s_randomWords","outputs":[{"internalType":"uint256","name":"","type":"uint256"}],"stateMutability":"view","type":"function"},{"inputs":[],"name":"s_requestId","outputs":[{"internalType":"uint256","name":"","type":"uint256"}],"stateMutability":"view","type":"function"}],"evm":{"bytecode":{"linkReferences":{},"object":"60a0604052732ca8e0c643bde4c2e08ab1fa0da3401adad7734d600160006101000a81548173ffffffffffffffffffffffffffffffffffffffff021916908373ffffffffffffffffffffffffffffffffffffffff1602179055507f79d3d8832d904592c0bf9818b621522c988bb8b0c05cdc3b15aea1b6e8db0c1560001b60025562030d40600360006101000a81548163ffffffff021916908363ffffffff16021790555060038060046101000a81548161ffff021916908361ffff1602179055506001600360066101000a81548163ffffffff021916908363ffffffff1602179055503480156100ef57600080fd5b50604051610b55380380610b5583398181016040528101906101119190610280565b600160009054906101000a900473ffffffffffffffffffffffffffffffffffffffff168073ffffffffffffffffffffffffffffffffffffffff1660808173ffffffffffffffffffffffffffffffffffffffff168152505050600160009054906101000a900473ffffffffffffffffffffffffffffffffffffffff166000806101000a81548173ffffffffffffffffffffffffffffffffffffffff021916908373ffffffffffffffffffffffffffffffffffffffff16021790555033600660006101000a81548173ffffffffffffffffffffffffffffffffffffffff021916908373ffffffffffffffffffffffffffffffffffffffff16021790555080600060146101000a81548167ffffffffffffffff021916908367ffffffffffffffff160217905550506102ad565b600080fd5b600067ffffffffffffffff82169050919050565b61025d81610240565b811461026857600080fd5b50565b60008151905061027a81610254565b92915050565b6000602082840312156102965761029561023b565b5b60006102a48482850161026b565b91505092915050565b6080516108876102ce6000396000818160c7015261011b01526108876000f3fe608060405234801561001057600080fd5b506004361061004c5760003560e01c80631fe543e314610051578063e0c862891461006d578063e89e106a14610077578063f6eaffc814610095575b600080fd5b61006b60048036038101906100669190610513565b6100c5565b005b610075610185565b005b61007f6102e6565b60405161008c919061057e565b60405180910390f35b6100af60048036038101906100aa9190610599565b6102ec565b6040516100bc919061057e565b60405180910390f35b7f000000000000000000000000000000000000000000000000000000000000000073ffffffffffffffffffffffffffffffffffffffff163373ffffffffffffffffffffffffffffffffffffffff161461017757337f00000000000000000000000000000000000000000000000000000000000000006040517f1cf993f400000000000000000000000000000000000000000000000000000000815260040161016e929190610607565b60405180910390fd5b6101818282610310565b5050565b600660009054906101000a900473ffffffffffffffffffffffffffffffffffffffff1673ffffffffffffffffffffffffffffffffffffffff163373ffffffffffffffffffffffffffffffffffffffff16146101df57600080fd5b60008054906101000a900473ffffffffffffffffffffffffffffffffffffffff1673ffffffffffffffffffffffffffffffffffffffff16635d3b1d30600254600060149054906101000a900467ffffffffffffffff16600360049054906101000a900461ffff16600360009054906101000a900463ffffffff16600360069054906101000a900463ffffffff166040518663ffffffff1660e01b815260040161028c9594939291906106a8565b602060405180830381600087803b1580156102a657600080fd5b505af11580156102ba573d6000803e3d6000fd5b505050506040513d601f19601f820116820180604052508101906102de9190610710565b600581905550565b60055481565b600481815481106102fc57600080fd5b906000526020600020016000915090505481565b6004600160648360008151811061032a5761032961073d565b5b602002602001015161033c919061079b565b61034691906107fb565b90806001815401808255809150506001900390600052602060002001600090919091909150555050565b6000604051905090565b600080fd5b600080fd5b6000819050919050565b61039781610384565b81146103a257600080fd5b50565b6000813590506103b48161038e565b92915050565b600080fd5b6000601f19601f8301169050919050565b7f4e487b7100000000000000000000000000000000000000000000000000000000600052604160045260246000fd5b610408826103bf565b810181811067ffffffffffffffff82111715610427576104266103d0565b5b80604052505050565b600061043a610370565b905061044682826103ff565b919050565b600067ffffffffffffffff821115610466576104656103d0565b5b602082029050602081019050919050565b600080fd5b600061048f61048a8461044b565b610430565b905080838252602082019050602084028301858111156104b2576104b1610477565b5b835b818110156104db57806104c788826103a5565b8452602084019350506020810190506104b4565b5050509392505050565b600082601f8301126104fa576104f96103ba565b5b813561050a84826020860161047c565b91505092915050565b6000806040838503121561052a5761052961037a565b5b6000610538858286016103a5565b925050602083013567ffffffffffffffff8111156105595761055861037f565b5b610565858286016104e5565b9150509250929050565b61057881610384565b82525050565b6000602082019050610593600083018461056f565b92915050565b6000602082840312156105af576105ae61037a565b5b60006105bd848285016103a5565b91505092915050565b600073ffffffffffffffffffffffffffffffffffffffff82169050919050565b60006105f1826105c6565b9050919050565b610601816105e6565b82525050565b600060408201905061061c60008301856105f8565b61062960208301846105f8565b9392505050565b6000819050919050565b61064381610630565b82525050565b600067ffffffffffffffff82169050919050565b61066681610649565b82525050565b600061ffff82169050919050565b6106838161066c565b82525050565b600063ffffffff82169050919050565b6106a281610689565b82525050565b600060a0820190506106bd600083018861063a565b6106ca602083018761065d565b6106d7604083018661067a565b6106e46060830185610699565b6106f16080830184610699565b9695505050505050565b60008151905061070a8161038e565b92915050565b6000602082840312156107265761072561037a565b5b6000610734848285016106fb565b91505092915050565b7f4e487b7100000000000000000000000000000000000000000000000000000000600052603260045260246000fd5b7f4e487b7100000000000000000000000000000000000000000000000000000000600052601260045260246000fd5b60006107a682610384565b91506107b183610384565b9250826107c1576107c061076c565b5b828206905092915050565b7f4e487b7100000000000000000000000000000000000000000000000000000000600052601160045260246000fd5b600061080682610384565b915061081183610384565b9250827fffffffffffffffffffffffffffffffffffffffffffffffffffffffffffffffff03821115610846576108456107cc565b5b82820190509291505056fea26469706673582212208578ff4562c5c64dd26019411ef736af071c0e5deee9d6f04e9181019d993c3364736f6c63430008090033","opcodes":"PUSH1 0xA0 PUSH1 0x40 MSTORE PUSH20 0x2CA8E0C643BDE4C2E08AB1FA0DA3401ADAD7734D PUSH1 0x1 PUSH1 0x0 PUSH2 0x100 EXP DUP2 SLOAD DUP2 PUSH20 0xFFFFFFFFFFFFFFFFFFFFFFFFFFFFFFFFFFFFFFFF MUL NOT AND SWAP1 DUP4 PUSH20 0xFFFFFFFFFFFFFFFFFFFFFFFFFFFFFFFFFFFFFFFF AND MUL OR SWAP1 SSTORE POP PUSH32 0x79D3D8832D904592C0BF9818B621522C988BB8B0C05CDC3B15AEA1B6E8DB0C15 PUSH1 0x0 SHL PUSH1 0x2 SSTORE PUSH3 0x30D40 PUSH1 0x3 PUSH1 0x0 PUSH2 0x100 EXP DUP2 SLOAD DUP2 PUSH4 0xFFFFFFFF MUL NOT AND SWAP1 DUP4 PUSH4 0xFFFFFFFF AND MUL OR SWAP1 SSTORE POP PUSH1 0x3 DUP1 PUSH1 0x4 PUSH2 0x100 EXP DUP2 SLOAD DUP2 PUSH2 0xFFFF MUL NOT AND SWAP1 DUP4 PUSH2 0xFFFF AND MUL OR SWAP1 SSTORE POP PUSH1 0x1 PUSH1 0x3 PUSH1 0x6 PUSH2 0x100 EXP DUP2 SLOAD DUP2 PUSH4 0xFFFFFFFF MUL NOT AND SWAP1 DUP4 PUSH4 0xFFFFFFFF AND MUL OR SWAP1 SSTORE POP CALLVALUE DUP1 ISZERO PUSH2 0xEF JUMPI PUSH1 0x0 DUP1 REVERT JUMPDEST POP PUSH1 0x40 MLOAD PUSH2 0xB55 CODESIZE SUB DUP1 PUSH2 0xB55 DUP4 CODECOPY DUP2 DUP2 ADD PUSH1 0x40 MSTORE DUP2 ADD SWAP1 PUSH2 0x111 SWAP2 SWAP1 PUSH2 0x280 JUMP JUMPDEST PUSH1 0x1 PUSH1 0x0 SWAP1 SLOAD SWAP1 PUSH2 0x100 EXP SWAP1 DIV PUSH20 0xFFFFFFFFFFFFFFFFFFFFFFFFFFFFFFFFFFFFFFFF AND DUP1 PUSH20 0xFFFFFFFFFFFFFFFFFFFFFFFFFFFFFFFFFFFFFFFF AND PUSH1 0x80 DUP2 PUSH20 0xFFFFFFFFFFFFFFFFFFFFFFFFFFFFFFFFFFFFFFFF AND DUP2 MSTORE POP POP POP PUSH1 0x1 PUSH1 0x0 SWAP1 SLOAD SWAP1 PUSH2 0x100 EXP SWAP1 DIV PUSH20 0xFFFFFFFFFFFFFFFFFFFFFFFFFFFFFFFFFFFFFFFF AND PUSH1 0x0 DUP1 PUSH2 0x100 EXP DUP2 SLOAD DUP2 PUSH20 0xFFFFFFFFFFFFFFFFFFFFFFFFFFFFFFFFFFFFFFFF MUL NOT AND SWAP1 DUP4 PUSH20 0xFFFFFFFFFFFFFFFFFFFFFFFFFFFFFFFFFFFFFFFF AND MUL OR SWAP1 SSTORE POP CALLER PUSH1 0x6 PUSH1 0x0 PUSH2 0x100 EXP DUP2 SLOAD DUP2 PUSH20 0xFFFFFFFFFFFFFFFFFFFFFFFFFFFFFFFFFFFFFFFF MUL NOT AND SWAP1 DUP4 PUSH20 0xFFFFFFFFFFFFFFFFFFFFFFFFFFFFFFFFFFFFFFFF AND MUL OR SWAP1 SSTORE POP DUP1 PUSH1 0x0 PUSH1 0x14 PUSH2 0x100 EXP DUP2 SLOAD DUP2 PUSH8 0xFFFFFFFFFFFFFFFF MUL NOT AND SWAP1 DUP4 PUSH8 0xFFFFFFFFFFFFFFFF AND MUL OR SWAP1 SSTORE POP POP PUSH2 0x2AD JUMP JUMPDEST PUSH1 0x0 DUP1 REVERT JUMPDEST PUSH1 0x0 PUSH8 0xFFFFFFFFFFFFFFFF DUP3 AND SWAP1 POP SWAP2 SWAP1 POP JUMP JUMPDEST PUSH2 0x25D DUP2 PUSH2 0x240 JUMP JUMPDEST DUP2 EQ PUSH2 0x268 JUMPI PUSH1 0x0 DUP1 REVERT JUMPDEST POP JUMP JUMPDEST PUSH1 0x0 DUP2 MLOAD SWAP1 POP PUSH2 0x27A DUP2 PUSH2 0x254 JUMP JUMPDEST SWAP3 SWAP2 POP POP JUMP JUMPDEST PUSH1 0x0 PUSH1 0x20 DUP3 DUP5 SUB SLT ISZERO PUSH2 0x296 JUMPI PUSH2 0x295 PUSH2 0x23B JUMP JUMPDEST JUMPDEST PUSH1 0x0 PUSH2 0x2A4 DUP5 DUP3 DUP6 ADD PUSH2 0x26B JUMP JUMPDEST SWAP2 POP POP SWAP3 SWAP2 POP POP JUMP JUMPDEST PUSH1 0x80 MLOAD PUSH2 0x887 PUSH2 0x2CE PUSH1 0x0 CODECOPY PUSH1 0x0 DUP2 DUP2 PUSH1 0xC7 ADD MSTORE PUSH2 0x11B ADD MSTORE PUSH2 0x887 PUSH1 0x0 RETURN INVALID PUSH1 0x80 PUSH1 0x40 MSTORE CALLVALUE DUP1 ISZERO PUSH2 0x10 JUMPI PUSH1 0x0 DUP1 REVERT JUMPDEST POP PUSH1 0x4 CALLDATASIZE LT PUSH2 0x4C JUMPI PUSH1 0x0 CALLDATALOAD PUSH1 0xE0 SHR DUP1 PUSH4 0x1FE543E3 EQ PUSH2 0x51 JUMPI DUP1 PUSH4 0xE0C86289 EQ PUSH2 0x6D JUMPI DUP1 PUSH4 0xE89E106A EQ PUSH2 0x77 JUMPI DUP1 PUSH4 0xF6EAFFC8 EQ PUSH2 0x95 JUMPI JUMPDEST PUSH1 0x0 DUP1 REVERT JUMPDEST PUSH2 0x6B PUSH1 0x4 DUP1 CALLDATASIZE SUB DUP2 ADD SWAP1 PUSH2 0x66 SWAP2 SWAP1 PUSH2 0x513 JUMP JUMPDEST PUSH2 0xC5 JUMP JUMPDEST STOP JUMPDEST PUSH2 0x75 PUSH2 0x185 JUMP JUMPDEST STOP JUMPDEST PUSH2 0x7F PUSH2 0x2E6 JUMP JUMPDEST PUSH1 0x40 MLOAD PUSH2 0x8C SWAP2 SWAP1 PUSH2 0x57E JUMP JUMPDEST PUSH1 0x40 MLOAD DUP1 SWAP2 SUB SWAP1 RETURN JUMPDEST PUSH2 0xAF PUSH1 0x4 DUP1 CALLDATASIZE SUB DUP2 ADD SWAP1 PUSH2 0xAA SWAP2 SWAP1 PUSH2 0x599 JUMP JUMPDEST PUSH2 0x2EC JUMP JUMPDEST PUSH1 0x40 MLOAD PUSH2 0xBC SWAP2 SWAP1 PUSH2 0x57E JUMP JUMPDEST PUSH1 0x40 MLOAD DUP1 SWAP2 SUB SWAP1 RETURN JUMPDEST PUSH32 0x0 PUSH20 0xFFFFFFFFFFFFFFFFFFFFFFFFFFFFFFFFFFFFFFFF AND CALLER PUSH20 0xFFFFFFFFFFFFFFFFFFFFFFFFFFFFFFFFFFFFFFFF AND EQ PUSH2 0x177 JUMPI CALLER PUSH32 0x0 PUSH1 0x40 MLOAD PUSH32 0x1CF993F400000000000000000000000000000000000000000000000000000000 DUP2 MSTORE PUSH1 0x4 ADD PUSH2 0x16E SWAP3 SWAP2 SWAP1 PUSH2 0x607 JUMP JUMPDEST PUSH1 0x40 MLOAD DUP1 SWAP2 SUB SWAP1 REVERT JUMPDEST PUSH2 0x181 DUP3 DUP3 PUSH2 0x310 JUMP JUMPDEST POP POP JUMP JUMPDEST PUSH1 0x6 PUSH1 0x0 SWAP1 SLOAD SWAP1 PUSH2 0x100 EXP SWAP1 DIV PUSH20 0xFFFFFFFFFFFFFFFFFFFFFFFFFFFFFFFFFFFFFFFF AND PUSH20 0xFFFFFFFFFFFFFFFFFFFFFFFFFFFFFFFFFFFFFFFF AND CALLER PUSH20 0xFFFFFFFFFFFFFFFFFFFFFFFFFFFFFFFFFFFFFFFF AND EQ PUSH2 0x1DF JUMPI PUSH1 0x0 DUP1 REVERT JUMPDEST PUSH1 0x0 DUP1 SLOAD SWAP1 PUSH2 0x100 EXP SWAP1 DIV PUSH20 0xFFFFFFFFFFFFFFFFFFFFFFFFFFFFFFFFFFFFFFFF AND PUSH20 0xFFFFFFFFFFFFFFFFFFFFFFFFFFFFFFFFFFFFFFFF AND PUSH4 0x5D3B1D30 PUSH1 0x2 SLOAD PUSH1 0x0 PUSH1 0x14 SWAP1 SLOAD SWAP1 PUSH2 0x100 EXP SWAP1 DIV PUSH8 0xFFFFFFFFFFFFFFFF AND PUSH1 0x3 PUSH1 0x4 SWAP1 SLOAD SWAP1 PUSH2 0x100 EXP SWAP1 DIV PUSH2 0xFFFF AND PUSH1 0x3 PUSH1 0x0 SWAP1 SLOAD SWAP1 PUSH2 0x100 EXP SWAP1 DIV PUSH4 0xFFFFFFFF AND PUSH1 0x3 PUSH1 0x6 SWAP1 SLOAD SWAP1 PUSH2 0x100 EXP SWAP1 DIV PUSH4 0xFFFFFFFF AND PUSH1 0x40 MLOAD DUP7 PUSH4 0xFFFFFFFF AND PUSH1 0xE0 SHL DUP2 MSTORE PUSH1 0x4 ADD PUSH2 0x28C SWAP6 SWAP5 SWAP4 SWAP3 SWAP2 SWAP1 PUSH2 0x6A8 JUMP JUMPDEST PUSH1 0x20 PUSH1 0x40 MLOAD DUP1 DUP4 SUB DUP2 PUSH1 0x0 DUP8 DUP1 EXTCODESIZE ISZERO DUP1 ISZERO PUSH2 0x2A6 JUMPI PUSH1 0x0 DUP1 REVERT JUMPDEST POP GAS CALL ISZERO DUP1 ISZERO PUSH2 0x2BA JUMPI RETURNDATASIZE PUSH1 0x0 DUP1 RETURNDATACOPY RETURNDATASIZE PUSH1 0x0 REVERT JUMPDEST POP POP POP POP PUSH1 0x40 MLOAD RETURNDATASIZE PUSH1 0x1F NOT PUSH1 0x1F DUP3 ADD AND DUP3 ADD DUP1 PUSH1 0x40 MSTORE POP DUP2 ADD SWAP1 PUSH2 0x2DE SWAP2 SWAP1 PUSH2 0x710 JUMP JUMPDEST PUSH1 0x5 DUP2 SWAP1 SSTORE POP JUMP JUMPDEST PUSH1 0x5 SLOAD DUP2 JUMP JUMPDEST PUSH1 0x4 DUP2 DUP2 SLOAD DUP2 LT PUSH2 0x2FC JUMPI PUSH1 0x0 DUP1 REVERT JUMPDEST SWAP1 PUSH1 0x0 MSTORE PUSH1 0x20 PUSH1 0x0 KECCAK256 ADD PUSH1 0x0 SWAP2 POP SWAP1 POP SLOAD DUP2 JUMP JUMPDEST PUSH1 0x4 PUSH1 0x1 PUSH1 0x64 DUP4 PUSH1 0x0 DUP2 MLOAD DUP2 LT PUSH2 0x32A JUMPI PUSH2 0x329 PUSH2 0x73D JUMP JUMPDEST JUMPDEST PUSH1 0x20 MUL PUSH1 0x20 ADD ADD MLOAD PUSH2 0x33C SWAP2 SWAP1 PUSH2 0x79B JUMP JUMPDEST PUSH2 0x346 SWAP2 SWAP1 PUSH2 0x7FB JUMP JUMPDEST SWAP1 DUP1 PUSH1 0x1 DUP2 SLOAD ADD DUP1 DUP3 SSTORE DUP1 SWAP2 POP POP PUSH1 0x1 SWAP1 SUB SWAP1 PUSH1 0x0 MSTORE PUSH1 0x20 PUSH1 0x0 KECCAK256 ADD PUSH1 0x0 SWAP1 SWAP2 SWAP1 SWAP2 SWAP1 SWAP2 POP SSTORE POP POP JUMP JUMPDEST PUSH1 0x0 PUSH1 0x40 MLOAD SWAP1 POP SWAP1 JUMP JUMPDEST PUSH1 0x0 DUP1 REVERT JUMPDEST PUSH1 0x0 DUP1 REVERT JUMPDEST PUSH1 0x0 DUP2 SWAP1 POP SWAP2 SWAP1 POP JUMP JUMPDEST PUSH2 0x397 DUP2 PUSH2 0x384 JUMP JUMPDEST DUP2 EQ PUSH2 0x3A2 JUMPI PUSH1 0x0 DUP1 REVERT JUMPDEST POP JUMP JUMPDEST PUSH1 0x0 DUP2 CALLDATALOAD SWAP1 POP PUSH2 0x3B4 DUP2 PUSH2 0x38E JUMP JUMPDEST SWAP3 SWAP2 POP POP JUMP JUMPDEST PUSH1 0x0 DUP1 REVERT JUMPDEST PUSH1 0x0 PUSH1 0x1F NOT PUSH1 0x1F DUP4 ADD AND SWAP1 POP SWAP2 SWAP1 POP JUMP JUMPDEST PUSH32 0x4E487B7100000000000000000000000000000000000000000000000000000000 PUSH1 0x0 MSTORE PUSH1 0x41 PUSH1 0x4 MSTORE PUSH1 0x24 PUSH1 0x0 REVERT JUMPDEST PUSH2 0x408 DUP3 PUSH2 0x3BF JUMP JUMPDEST DUP2 ADD DUP2 DUP2 LT PUSH8 0xFFFFFFFFFFFFFFFF DUP3 GT OR ISZERO PUSH2 0x427 JUMPI PUSH2 0x426 PUSH2 0x3D0 JUMP JUMPDEST JUMPDEST DUP1 PUSH1 0x40 MSTORE POP POP POP JUMP JUMPDEST PUSH1 0x0 PUSH2 0x43A PUSH2 0x370 JUMP JUMPDEST SWAP1 POP PUSH2 0x446 DUP3 DUP3 PUSH2 0x3FF JUMP JUMPDEST SWAP2 SWAP1 POP JUMP JUMPDEST PUSH1 0x0 PUSH8 0xFFFFFFFFFFFFFFFF DUP3 GT ISZERO PUSH2 0x466 JUMPI PUSH2 0x465 PUSH2 0x3D0 JUMP JUMPDEST JUMPDEST PUSH1 0x20 DUP3 MUL SWAP1 POP PUSH1 0x20 DUP2 ADD SWAP1 POP SWAP2 SWAP1 POP JUMP JUMPDEST PUSH1 0x0 DUP1 REVERT JUMPDEST PUSH1 0x0 PUSH2 0x48F PUSH2 0x48A DUP5 PUSH2 0x44B JUMP JUMPDEST PUSH2 0x430 JUMP JUMPDEST SWAP1 POP DUP1 DUP4 DUP3 MSTORE PUSH1 0x20 DUP3 ADD SWAP1 POP PUSH1 0x20 DUP5 MUL DUP4 ADD DUP6 DUP2 GT ISZERO PUSH2 0x4B2 JUMPI PUSH2 0x4B1 PUSH2 0x477 JUMP JUMPDEST JUMPDEST DUP4 JUMPDEST DUP2 DUP2 LT ISZERO PUSH2 0x4DB JUMPI DUP1 PUSH2 0x4C7 DUP9 DUP3 PUSH2 0x3A5 JUMP JUMPDEST DUP5 MSTORE PUSH1 0x20 DUP5 ADD SWAP4 POP POP PUSH1 0x20 DUP2 ADD SWAP1 POP PUSH2 0x4B4 JUMP JUMPDEST POP POP POP SWAP4 SWAP3 POP POP POP JUMP JUMPDEST PUSH1 0x0 DUP3 PUSH1 0x1F DUP4 ADD SLT PUSH2 0x4FA JUMPI PUSH2 0x4F9 PUSH2 0x3BA JUMP JUMPDEST JUMPDEST DUP2 CALLDATALOAD PUSH2 0x50A DUP5 DUP3 PUSH1 0x20 DUP7 ADD PUSH2 0x47C JUMP JUMPDEST SWAP2 POP POP SWAP3 SWAP2 POP POP JUMP JUMPDEST PUSH1 0x0 DUP1 PUSH1 0x40 DUP4 DUP6 SUB SLT ISZERO PUSH2 0x52A JUMPI PUSH2 0x529 PUSH2 0x37A JUMP JUMPDEST JUMPDEST PUSH1 0x0 PUSH2 0x538 DUP6 DUP3 DUP7 ADD PUSH2 0x3A5 JUMP JUMPDEST SWAP3 POP POP PUSH1 0x20 DUP4 ADD CALLDATALOAD PUSH8 0xFFFFFFFFFFFFFFFF DUP2 GT ISZERO PUSH2 0x559 JUMPI PUSH2 0x558 PUSH2 0x37F JUMP JUMPDEST JUMPDEST PUSH2 0x565 DUP6 DUP3 DUP7 ADD PUSH2 0x4E5 JUMP JUMPDEST SWAP2 POP POP SWAP3 POP SWAP3 SWAP1 POP JUMP JUMPDEST PUSH2 0x578 DUP2 PUSH2 0x384 JUMP JUMPDEST DUP3 MSTORE POP POP JUMP JUMPDEST PUSH1 0x0 PUSH1 0x20 DUP3 ADD SWAP1 POP PUSH2 0x593 PUSH1 0x0 DUP4 ADD DUP5 PUSH2 0x56F JUMP JUMPDEST SWAP3 SWAP2 POP POP JUMP JUMPDEST PUSH1 0x0 PUSH1 0x20 DUP3 DUP5 SUB SLT ISZERO PUSH2 0x5AF JUMPI PUSH2 0x5AE PUSH2 0x37A JUMP JUMPDEST JUMPDEST PUSH1 0x0 PUSH2 0x5BD DUP5 DUP3 DUP6 ADD PUSH2 0x3A5 JUMP JUMPDEST SWAP2 POP POP SWAP3 SWAP2 POP POP JUMP JUMPDEST PUSH1 0x0 PUSH20 0xFFFFFFFFFFFFFFFFFFFFFFFFFFFFFFFFFFFFFFFF DUP3 AND SWAP1 POP SWAP2 SWAP1 POP JUMP JUMPDEST PUSH1 0x0 PUSH2 0x5F1 DUP3 PUSH2 0x5C6 JUMP JUMPDEST SWAP1 POP SWAP2 SWAP1 POP JUMP JUMPDEST PUSH2 0x601 DUP2 PUSH2 0x5E6 JUMP JUMPDEST DUP3 MSTORE POP POP JUMP JUMPDEST PUSH1 0x0 PUSH1 0x40 DUP3 ADD SWAP1 POP PUSH2 0x61C PUSH1 0x0 DUP4 ADD DUP6 PUSH2 0x5F8 JUMP JUMPDEST PUSH2 0x629 PUSH1 0x20 DUP4 ADD DUP5 PUSH2 0x5F8 JUMP JUMPDEST SWAP4 SWAP3 POP POP POP JUMP JUMPDEST PUSH1 0x0 DUP2 SWAP1 POP SWAP2 SWAP1 POP JUMP JUMPDEST PUSH2 0x643 DUP2 PUSH2 0x630 JUMP JUMPDEST DUP3 MSTORE POP POP JUMP JUMPDEST PUSH1 0x0 PUSH8 0xFFFFFFFFFFFFFFFF DUP3 AND SWAP1 POP SWAP2 SWAP1 POP JUMP JUMPDEST PUSH2 0x666 DUP2 PUSH2 0x649 JUMP JUMPDEST DUP3 MSTORE POP POP JUMP JUMPDEST PUSH1 0x0 PUSH2 0xFFFF DUP3 AND SWAP1 POP SWAP2 SWAP1 POP JUMP JUMPDEST PUSH2 0x683 DUP2 PUSH2 0x66C JUMP JUMPDEST DUP3 MSTORE POP POP JUMP JUMPDEST PUSH1 0x0 PUSH4 0xFFFFFFFF DUP3 AND SWAP1 POP SWAP2 SWAP1 POP JUMP JUMPDEST PUSH2 0x6A2 DUP2 PUSH2 0x689 JUMP JUMPDEST DUP3 MSTORE POP POP JUMP JUMPDEST PUSH1 0x0 PUSH1 0xA0 DUP3 ADD SWAP1 POP PUSH2 0x6BD PUSH1 0x0 DUP4 ADD DUP9 PUSH2 0x63A JUMP JUMPDEST PUSH2 0x6CA PUSH1 0x20 DUP4 ADD DUP8 PUSH2 0x65D JUMP JUMPDEST PUSH2 0x6D7 PUSH1 0x40 DUP4 ADD DUP7 PUSH2 0x67A JUMP JUMPDEST PUSH2 0x6E4 PUSH1 0x60 DUP4 ADD DUP6 PUSH2 0x699 JUMP JUMPDEST PUSH2 0x6F1 PUSH1 0x80 DUP4 ADD DUP5 PUSH2 0x699 JUMP JUMPDEST SWAP7 SWAP6 POP POP POP POP POP POP JUMP JUMPDEST PUSH1 0x0 DUP2 MLOAD SWAP1 POP PUSH2 0x70A DUP2 PUSH2 0x38E JUMP JUMPDEST SWAP3 SWAP2 POP POP JUMP JUMPDEST PUSH1 0x0 PUSH1 0x20 DUP3 DUP5 SUB SLT ISZERO PUSH2 0x726 JUMPI PUSH2 0x725 PUSH2 0x37A JUMP JUMPDEST JUMPDEST PUSH1 0x0 PUSH2 0x734 DUP5 DUP3 DUP6 ADD PUSH2 0x6FB JUMP JUMPDEST SWAP2 POP POP SWAP3 SWAP2 POP POP JUMP JUMPDEST PUSH32 0x4E487B7100000000000000000000000000000000000000000000000000000000 PUSH1 0x0 MSTORE PUSH1 0x32 PUSH1 0x4 MSTORE PUSH1 0x24 PUSH1 0x0 REVERT JUMPDEST PUSH32 0x4E487B7100000000000000000000000000000000000000000000000000000000 PUSH1 0x0 MSTORE PUSH1 0x12 PUSH1 0x4 MSTORE PUSH1 0x24 PUSH1 0x0 REVERT JUMPDEST PUSH1 0x0 PUSH2 0x7A6 DUP3 PUSH2 0x384 JUMP JUMPDEST SWAP2 POP PUSH2 0x7B1 DUP4 PUSH2 0x384 JUMP JUMPDEST SWAP3 POP DUP3 PUSH2 0x7C1 JUMPI PUSH2 0x7C0 PUSH2 0x76C JUMP JUMPDEST JUMPDEST DUP3 DUP3 MOD SWAP1 POP SWAP3 SWAP2 POP POP JUMP JUMPDEST PUSH32 0x4E487B7100000000000000000000000000000000000000000000000000000000 PUSH1 0x0 MSTORE PUSH1 0x11 PUSH1 0x4 MSTORE PUSH1 0x24 PUSH1 0x0 REVERT JUMPDEST PUSH1 0x0 PUSH2 0x806 DUP3 PUSH2 0x384 JUMP JUMPDEST SWAP2 POP PUSH2 0x811 DUP4 PUSH2 0x384 JUMP JUMPDEST SWAP3 POP DUP3 PUSH32 0xFFFFFFFFFFFFFFFFFFFFFFFFFFFFFFFFFFFFFFFFFFFFFFFFFFFFFFFFFFFFFFFF SUB DUP3 GT ISZERO PUSH2 0x846 JUMPI PUSH2 0x845 PUSH2 0x7CC JUMP JUMPDEST JUMPDEST DUP3 DUP3 ADD SWAP1 POP SWAP3 SWAP2 POP POP JUMP INVALID LOG2 PUSH5 0x6970667358 0x22 SLT KECCAK256 DUP6 PUSH25 0xFF4562C5C64DD26019411EF736AF071C0E5DEEE9D6F04E9181 ADD SWAP14 SWAP10 EXTCODECOPY CALLER PUSH5 0x736F6C6343 STOP ADDMOD MULMOD STOP CALLER "},"methodIdentifiers":{"rawFulfillRandomWords(uint256,uint256[])":"1fe543e3","requestRandomWords()":"e0c86289","s_randomWords(uint256)":"f6eaffc8","s_requestId()":"e89e106a"}}}}}