{
  "_format": "hh-sol-artifact-1",
  "contractName": "RandomNumRange",
  "sourceName": "contracts/RandomNumRange.sol",
  "abi": [
    {
      "inputs": [
        {
          "internalType": "uint64",
          "name": "subscriptionId",
          "type": "uint64"
        }
      ],
      "stateMutability": "nonpayable",
      "type": "constructor"
    },
    {
      "inputs": [
        {
          "internalType": "address",
          "name": "have",
          "type": "address"
        },
        {
          "internalType": "address",
          "name": "want",
          "type": "address"
        }
      ],
      "name": "OnlyCoordinatorCanFulfill",
      "type": "error"
    },
    {
      "inputs": [
        {
          "internalType": "uint256",
          "name": "requestId",
          "type": "uint256"
        },
        {
          "internalType": "uint256[]",
          "name": "randomWords",
          "type": "uint256[]"
        }
      ],
      "name": "rawFulfillRandomWords",
      "outputs": [],
      "stateMutability": "nonpayable",
      "type": "function"
    },
    {
      "inputs": [],
      "name": "requestRandomWords",
      "outputs": [],
      "stateMutability": "nonpayable",
      "type": "function"
    },
    {
      "inputs": [
        {
          "internalType": "uint256",
          "name": "",
          "type": "uint256"
        }
      ],
      "name": "s_randomWords",
      "outputs": [
        {
          "internalType": "uint256",
          "name": "",
          "type": "uint256"
        }
      ],
      "stateMutability": "view",
      "type": "function"
    },
    {
      "inputs": [],
      "name": "s_requestId",
      "outputs": [
        {
          "internalType": "uint256",
          "name": "",
          "type": "uint256"
        }
      ],
      "stateMutability": "view",
      "type": "function"
    }
  ],
  "bytecode": "0x60a0604052732ca8e0c643bde4c2e08ab1fa0da3401adad7734d600160006101000a81548173ffffffffffffffffffffffffffffffffffffffff021916908373ffffffffffffffffffffffffffffffffffffffff1602179055507f79d3d8832d904592c0bf9818b621522c988bb8b0c05cdc3b15aea1b6e8db0c1560001b60025562030d40600360006101000a81548163ffffffff021916908363ffffffff16021790555060038060046101000a81548161ffff021916908361ffff1602179055506001600360066101000a81548163ffffffff021916908363ffffffff1602179055503480156100ef57600080fd5b50604051610b55380380610b5583398181016040528101906101119190610280565b600160009054906101000a900473ffffffffffffffffffffffffffffffffffffffff168073ffffffffffffffffffffffffffffffffffffffff1660808173ffffffffffffffffffffffffffffffffffffffff168152505050600160009054906101000a900473ffffffffffffffffffffffffffffffffffffffff166000806101000a81548173ffffffffffffffffffffffffffffffffffffffff021916908373ffffffffffffffffffffffffffffffffffffffff16021790555033600660006101000a81548173ffffffffffffffffffffffffffffffffffffffff021916908373ffffffffffffffffffffffffffffffffffffffff16021790555080600060146101000a81548167ffffffffffffffff021916908367ffffffffffffffff160217905550506102ad565b600080fd5b600067ffffffffffffffff82169050919050565b61025d81610240565b811461026857600080fd5b50565b60008151905061027a81610254565b92915050565b6000602082840312156102965761029561023b565b5b60006102a48482850161026b565b91505092915050565b6080516108876102ce6000396000818160c7015261011b01526108876000f3fe608060405234801561001057600080fd5b506004361061004c5760003560e01c80631fe543e314610051578063e0c862891461006d578063e89e106a14610077578063f6eaffc814610095575b600080fd5b61006b60048036038101906100669190610513565b6100c5565b005b610075610185565b005b61007f6102e6565b60405161008c919061057e565b60405180910390f35b6100af60048036038101906100aa9190610599565b6102ec565b6040516100bc919061057e565b60405180910390f35b7f000000000000000000000000000000000000000000000000000000000000000073ffffffffffffffffffffffffffffffffffffffff163373ffffffffffffffffffffffffffffffffffffffff161461017757337f00000000000000000000000000000000000000000000000000000000000000006040517f1cf993f400000000000000000000000000000000000000000000000000000000815260040161016e929190610607565b60405180910390fd5b6101818282610310565b5050565b600660009054906101000a900473ffffffffffffffffffffffffffffffffffffffff1673ffffffffffffffffffffffffffffffffffffffff163373ffffffffffffffffffffffffffffffffffffffff16146101df57600080fd5b60008054906101000a900473ffffffffffffffffffffffffffffffffffffffff1673ffffffffffffffffffffffffffffffffffffffff16635d3b1d30600254600060149054906101000a900467ffffffffffffffff16600360049054906101000a900461ffff16600360009054906101000a900463ffffffff16600360069054906101000a900463ffffffff166040518663ffffffff1660e01b815260040161028c9594939291906106a8565b602060405180830381600087803b1580156102a657600080fd5b505af11580156102ba573d6000803e3d6000fd5b505050506040513d601f19601f820116820180604052508101906102de9190610710565b600581905550565b60055481565b600481815481106102fc57600080fd5b906000526020600020016000915090505481565b6004600160648360008151811061032a5761032961073d565b5b602002602001015161033c919061079b565b61034691906107fb565b90806001815401808255809150506001900390600052602060002001600090919091909150555050565b6000604051905090565b600080fd5b600080fd5b6000819050919050565b61039781610384565b81146103a257600080fd5b50565b6000813590506103b48161038e565b92915050565b600080fd5b6000601f19601f8301169050919050565b7f4e487b7100000000000000000000000000000000000000000000000000000000600052604160045260246000fd5b610408826103bf565b810181811067ffffffffffffffff82111715610427576104266103d0565b5b80604052505050565b600061043a610370565b905061044682826103ff565b919050565b600067ffffffffffffffff821115610466576104656103d0565b5b602082029050602081019050919050565b600080fd5b600061048f61048a8461044b565b610430565b905080838252602082019050602084028301858111156104b2576104b1610477565b5b835b818110156104db57806104c788826103a5565b8452602084019350506020810190506104b4565b5050509392505050565b600082601f8301126104fa576104f96103ba565b5b813561050a84826020860161047c565b91505092915050565b6000806040838503121561052a5761052961037a565b5b6000610538858286016103a5565b925050602083013567ffffffffffffffff8111156105595761055861037f565b5b610565858286016104e5565b9150509250929050565b61057881610384565b82525050565b6000602082019050610593600083018461056f565b92915050565b6000602082840312156105af576105ae61037a565b5b60006105bd848285016103a5565b91505092915050565b600073ffffffffffffffffffffffffffffffffffffffff82169050919050565b60006105f1826105c6565b9050919050565b610601816105e6565b82525050565b600060408201905061061c60008301856105f8565b61062960208301846105f8565b9392505050565b6000819050919050565b61064381610630565b82525050565b600067ffffffffffffffff82169050919050565b61066681610649565b82525050565b600061ffff82169050919050565b6106838161066c565b82525050565b600063ffffffff82169050919050565b6106a281610689565b82525050565b600060a0820190506106bd600083018861063a565b6106ca602083018761065d565b6106d7604083018661067a565b6106e46060830185610699565b6106f16080830184610699565b9695505050505050565b60008151905061070a8161038e565b92915050565b6000602082840312156107265761072561037a565b5b6000610734848285016106fb565b91505092915050565b7f4e487b7100000000000000000000000000000000000000000000000000000000600052603260045260246000fd5b7f4e487b7100000000000000000000000000000000000000000000000000000000600052601260045260246000fd5b60006107a682610384565b91506107b183610384565b9250826107c1576107c061076c565b5b828206905092915050565b7f4e487b7100000000000000000000000000000000000000000000000000000000600052601160045260246000fd5b600061080682610384565b915061081183610384565b9250827fffffffffffffffffffffffffffffffffffffffffffffffffffffffffffffffff03821115610846576108456107cc565b5b82820190509291505056fea26469706673582212208578ff4562c5c64dd26019411ef736af071c0e5deee9d6f04e9181019d993c3364736f6c63430008090033",
  "linkReferences": {},
  "deployedLinkReferences": {}
}